:1000000015EF00F0EA6A150EE96EEF500DE0060EEE
:10001000016E006A002EFED7012EFBD77B0E006E0C
:10002000002EFED7EF2EF3D71200F86AD09E046A96
:10003000056A066A076A096A086AC150C00B0F0997
:10004000C16E070EB46E3F0E0A6E060E0B6E5B0E8F
:100050000C6E4F0E0D6E660E0E6E6D0E0F6E7D0EDB
:10006000106E070E116E7F0E126E6F0E136EF19EE4
:10007000956A8C6AFF0E936E000E956E036A0450AB
:100080000A0FE96E000E0320EA6EEFCF14F0956AB6
:1000900014C08CFF926A040E896E050E156EB2DFD5
:1000A000036A05500A0FE96E000E0320EA6EEFCFD7
:1000B00014F0956A14C08CFF926A080E896E050EC2
:1000C000156EA0DF036A06500A0FE96E000E0320CA
:1000D000EA6EEFCF14F0956A14C08CFF926A100E8E
:1000E000896E050E156E8EDF036A07500A0FE96EE2
:1000F000000E0320EA6EEFCF14F0956A14C08CFF57
:10010000926A200E896E050E156E7CDF0850B808C5
:1001100004E109500B0801E1072A938081B008D05F
:10012000072A020E146E960E156E6CDF142EFBD786
:10013000938281B208D0052A020E146E960E156EB7
:1001400061DF142EFBD707500A0802E1076A062A6E
:1001500006500A0DF35007243C0803E1066A076ABB
:10016000052A05500A0802E1056A042A045002081B
:1001700007E10550040804E1046A056A066A076A93
:0A018000082AD8B4092A7AD7030030
:020000040030CA
:0E00000027CC3E1E0087A1000FC00FE00F406E
:00000001FF
;PIC18F4550
;CRC=B6DD  CREATED="30-jun-21 15:57"
